{
  "_format": "hh-sol-artifact-1",
  "contractName": "TokenBridge",
  "sourceName": "contracts/token-bridge/TokenBridge.sol",
  "abi": [
    {
      "inputs": [
        {
          "internalType": "address",
          "name": "_token",
          "type": "address"
        },
        {
          "internalType": "address",
          "name": "_blobstream",
          "type": "address"
        },
        {
          "internalType": "address",
          "name": "_tellorFlex",
          "type": "address"
        }
      ],
      "stateMutability": "nonpayable",
      "type": "constructor"
    },
    {
      "anonymous": false,
      "inputs": [
        {
          "indexed": false,
          "internalType": "enum TokenBridge.BridgeState",
          "name": "_newState",
          "type": "uint8"
        }
      ],
      "name": "BridgeStateUpdated",
      "type": "event"
    },
    {
      "anonymous": false,
      "inputs": [
        {
          "indexed": false,
          "internalType": "uint256",
          "name": "_depositId",
          "type": "uint256"
        },
        {
          "indexed": false,
          "internalType": "address",
          "name": "_sender",
          "type": "address"
        },
        {
          "indexed": false,
          "internalType": "string",
          "name": "_recipient",
          "type": "string"
        },
        {
          "indexed": false,
          "internalType": "uint256",
          "name": "_amount",
          "type": "uint256"
        },
        {
          "indexed": false,
          "internalType": "uint256",
          "name": "_tip",
          "type": "uint256"
        }
      ],
      "name": "Deposit",
      "type": "event"
    },
    {
      "anonymous": false,
      "inputs": [
        {
          "indexed": false,
          "internalType": "address",
          "name": "_recipient",
          "type": "address"
        },
        {
          "indexed": false,
          "internalType": "uint256",
          "name": "_amount",
          "type": "uint256"
        }
      ],
      "name": "ExtraWithdrawClaimed",
      "type": "event"
    },
    {
      "anonymous": false,
      "inputs": [
        {
          "indexed": false,
          "internalType": "uint256",
          "name": "_depositId",
          "type": "uint256"
        },
        {
          "indexed": false,
          "internalType": "string",
          "name": "_sender",
          "type": "string"
        },
        {
          "indexed": false,
          "internalType": "address",
          "name": "_recipient",
          "type": "address"
        },
        {
          "indexed": false,
          "internalType": "uint256",
          "name": "_amount",
          "type": "uint256"
        }
      ],
      "name": "Withdraw",
      "type": "event"
    },
    {
      "inputs": [],
      "name": "DEPOSIT_LIMIT_DENOMINATOR",
      "outputs": [
        {
          "internalType": "uint256",
          "name": "",
          "type": "uint256"
        }
      ],
      "stateMutability": "view",
      "type": "function"
    },
    {
      "inputs": [],
      "name": "MS_PER_SECOND",
      "outputs": [
        {
          "internalType": "uint256",
          "name": "",
          "type": "uint256"
        }
      ],
      "stateMutability": "view",
      "type": "function"
    },
    {
      "inputs": [],
      "name": "PAUSE_PERIOD",
      "outputs": [
        {
          "internalType": "uint256",
          "name": "",
          "type": "uint256"
        }
      ],
      "stateMutability": "view",
      "type": "function"
    },
    {
      "inputs": [],
      "name": "PAUSE_TRIBUTE_AMOUNT",
      "outputs": [
        {
          "internalType": "uint256",
          "name": "",
          "type": "uint256"
        }
      ],
      "stateMutability": "view",
      "type": "function"
    },
    {
      "inputs": [],
      "name": "TOKEN_DECIMAL_PRECISION_MULTIPLIER",
      "outputs": [
        {
          "internalType": "uint256",
          "name": "",
          "type": "uint256"
        }
      ],
      "stateMutability": "view",
      "type": "function"
    },
    {
      "inputs": [],
      "name": "TWELVE_HOUR_CONSTANT",
      "outputs": [
        {
          "internalType": "uint256",
          "name": "",
          "type": "uint256"
        }
      ],
      "stateMutability": "view",
      "type": "function"
    },
    {
      "inputs": [],
      "name": "WITHDRAW_LIMIT_DENOMINATOR",
      "outputs": [
        {
          "internalType": "uint256",
          "name": "",
          "type": "uint256"
        }
      ],
      "stateMutability": "view",
      "type": "function"
    },
    {
      "inputs": [
        {
          "internalType": "uint256",
          "name": "_amount",
          "type": "uint256"
        }
      ],
      "name": "addStakingRewards",
      "outputs": [],
      "stateMutability": "nonpayable",
      "type": "function"
    },
    {
      "inputs": [],
      "name": "bridge",
      "outputs": [
        {
          "internalType": "contract IBlobstreamO",
          "name": "",
          "type": "address"
        }
      ],
      "stateMutability": "view",
      "type": "function"
    },
    {
      "inputs": [],
      "name": "bridgeState",
      "outputs": [
        {
          "internalType": "enum TokenBridge.BridgeState",
          "name": "",
          "type": "uint8"
        }
      ],
      "stateMutability": "view",
      "type": "function"
    },
    {
      "inputs": [],
      "name": "bridgeStateUpdateTime",
      "outputs": [
        {
          "internalType": "uint256",
          "name": "",
          "type": "uint256"
        }
      ],
      "stateMutability": "view",
      "type": "function"
    },
    {
      "inputs": [
        {
          "internalType": "address",
          "name": "_recipient",
          "type": "address"
        }
      ],
      "name": "claimExtraWithdraw",
      "outputs": [],
      "stateMutability": "nonpayable",
      "type": "function"
    },
    {
      "inputs": [],
      "name": "depositId",
      "outputs": [
        {
          "internalType": "uint256",
          "name": "",
          "type": "uint256"
        }
      ],
      "stateMutability": "view",
      "type": "function"
    },
    {
      "inputs": [],
      "name": "depositLimit",
      "outputs": [
        {
          "internalType": "uint256",
          "name": "",
          "type": "uint256"
        }
      ],
      "stateMutability": "view",
      "type": "function"
    },
    {
      "inputs": [],
      "name": "depositLimitRecord",
      "outputs": [
        {
          "internalType": "uint256",
          "name": "",
          "type": "uint256"
        }
      ],
      "stateMutability": "view",
      "type": "function"
    },
    {
      "inputs": [],
      "name": "depositLimitUpdateTime",
      "outputs": [
        {
          "internalType": "uint256",
          "name": "",
          "type": "uint256"
        }
      ],
      "stateMutability": "view",
      "type": "function"
    },
    {
      "inputs": [
        {
          "internalType": "uint256",
          "name": "_amount",
          "type": "uint256"
        },
        {
          "internalType": "uint256",
          "name": "_tip",
          "type": "uint256"
        },
        {
          "internalType": "string",
          "name": "_layerRecipient",
          "type": "string"
        }
      ],
      "name": "depositToLayer",
      "outputs": [],
      "stateMutability": "nonpayable",
      "type": "function"
    },
    {
      "inputs": [
        {
          "internalType": "uint256",
          "name": "depositId",
          "type": "uint256"
        }
      ],
      "name": "deposits",
      "outputs": [
        {
          "internalType": "address",
          "name": "sender",
          "type": "address"
        },
        {
          "internalType": "string",
          "name": "recipient",
          "type": "string"
        },
        {
          "internalType": "uint256",
          "name": "amount",
          "type": "uint256"
        },
        {
          "internalType": "uint256",
          "name": "tip",
          "type": "uint256"
        },
        {
          "internalType": "uint256",
          "name": "blockHeight",
          "type": "uint256"
        }
      ],
      "stateMutability": "view",
      "type": "function"
    },
    {
      "inputs": [
        {
          "internalType": "bytes32",
          "name": "_queryId",
          "type": "bytes32"
        },
        {
          "internalType": "uint256",
          "name": "_timestamp",
          "type": "uint256"
        }
      ],
      "name": "getDataBefore",
      "outputs": [
        {
          "internalType": "bool",
          "name": "_ifRetrieve",
          "type": "bool"
        },
        {
          "internalType": "bytes",
          "name": "_value",
          "type": "bytes"
        },
        {
          "internalType": "uint256",
          "name": "_timestampRetrieved",
          "type": "uint256"
        }
      ],
      "stateMutability": "view",
      "type": "function"
    },
    {
      "inputs": [
        {
          "internalType": "bytes32",
          "name": "_queryId",
          "type": "bytes32"
        },
        {
          "internalType": "uint256",
          "name": "_timestamp",
          "type": "uint256"
        }
      ],
      "name": "getIndexForDataBefore",
      "outputs": [
        {
          "internalType": "bool",
          "name": "_found",
          "type": "bool"
        },
        {
          "internalType": "uint256",
          "name": "_index",
          "type": "uint256"
        }
      ],
      "stateMutability": "view",
      "type": "function"
    },
    {
      "inputs": [
        {
          "internalType": "bytes32",
          "name": "_queryId",
          "type": "bytes32"
        }
      ],
      "name": "getNewValueCountbyQueryId",
      "outputs": [
        {
          "internalType": "uint256",
          "name": "",
          "type": "uint256"
        }
      ],
      "stateMutability": "view",
      "type": "function"
    },
    {
      "inputs": [
        {
          "internalType": "bytes32",
          "name": "_queryId",
          "type": "bytes32"
        },
        {
          "internalType": "uint256",
          "name": "_timestamp",
          "type": "uint256"
        }
      ],
      "name": "getReporterByTimestamp",
      "outputs": [
        {
          "internalType": "address",
          "name": "",
          "type": "address"
        }
      ],
      "stateMutability": "view",
      "type": "function"
    },
    {
      "inputs": [],
      "name": "getTimeOfLastNewValue",
      "outputs": [
        {
          "internalType": "uint256",
          "name": "",
          "type": "uint256"
        }
      ],
      "stateMutability": "view",
      "type": "function"
    },
    {
      "inputs": [
        {
          "internalType": "bytes32",
          "name": "_queryId",
          "type": "bytes32"
        },
        {
          "internalType": "uint256",
          "name": "_index",
          "type": "uint256"
        }
      ],
      "name": "getTimestampbyQueryIdandIndex",
      "outputs": [
        {
          "internalType": "uint256",
          "name": "",
          "type": "uint256"
        }
      ],
      "stateMutability": "view",
      "type": "function"
    },
    {
      "inputs": [
        {
          "internalType": "bytes32",
          "name": "_queryId",
          "type": "bytes32"
        },
        {
          "internalType": "uint256",
          "name": "_timestamp",
          "type": "uint256"
        }
      ],
      "name": "isInDispute",
      "outputs": [
        {
          "internalType": "bool",
          "name": "",
          "type": "bool"
        }
      ],
      "stateMutability": "view",
      "type": "function"
    },
    {
      "inputs": [],
      "name": "pauseBridge",
      "outputs": [],
      "stateMutability": "nonpayable",
      "type": "function"
    },
    {
      "inputs": [
        {
          "internalType": "bytes32",
          "name": "_queryId",
          "type": "bytes32"
        },
        {
          "internalType": "uint256",
          "name": "_timestamp",
          "type": "uint256"
        }
      ],
      "name": "retrieveData",
      "outputs": [
        {
          "internalType": "bytes",
          "name": "",
          "type": "bytes"
        }
      ],
      "stateMutability": "view",
      "type": "function"
    },
    {
      "inputs": [],
      "name": "tellorFlex",
      "outputs": [
        {
          "internalType": "contract ITellorFlex",
          "name": "",
          "type": "address"
        }
      ],
      "stateMutability": "view",
      "type": "function"
    },
    {
      "inputs": [],
      "name": "token",
      "outputs": [
        {
          "internalType": "contract ITellorMaster",
          "name": "",
          "type": "address"
        }
      ],
      "stateMutability": "view",
      "type": "function"
    },
    {
      "inputs": [
        {
          "internalType": "address",
          "name": "recipient",
          "type": "address"
        }
      ],
      "name": "tokensToClaim",
      "outputs": [
        {
          "internalType": "uint256",
          "name": "extraAmountToClaim",
          "type": "uint256"
        }
      ],
      "stateMutability": "view",
      "type": "function"
    },
    {
      "inputs": [],
      "name": "unpauseBridge",
      "outputs": [],
      "stateMutability": "nonpayable",
      "type": "function"
    },
    {
      "inputs": [],
      "name": "verify",
      "outputs": [
        {
          "internalType": "uint256",
          "name": "",
          "type": "uint256"
        }
      ],
      "stateMutability": "pure",
      "type": "function"
    },
    {
      "inputs": [
        {
          "internalType": "uint256",
          "name": "withdrawId",
          "type": "uint256"
        }
      ],
      "name": "withdrawClaimed",
      "outputs": [
        {
          "internalType": "bool",
          "name": "claimed",
          "type": "bool"
        }
      ],
      "stateMutability": "view",
      "type": "function"
    },
    {
      "inputs": [
        {
          "components": [
            {
              "internalType": "bytes32",
              "name": "queryId",
              "type": "bytes32"
            },
            {
              "components": [
                {
                  "internalType": "bytes",
                  "name": "value",
                  "type": "bytes"
                },
                {
                  "internalType": "uint256",
                  "name": "timestamp",
                  "type": "uint256"
                },
                {
                  "internalType": "uint256",
                  "name": "aggregatePower",
                  "type": "uint256"
                },
                {
                  "internalType": "uint256",
                  "name": "previousTimestamp",
                  "type": "uint256"
                },
                {
                  "internalType": "uint256",
                  "name": "nextTimestamp",
                  "type": "uint256"
                }
              ],
              "internalType": "struct ReportData",
              "name": "report",
              "type": "tuple"
            },
            {
              "internalType": "uint256",
              "name": "attestationTimestamp",
              "type": "uint256"
            }
          ],
          "internalType": "struct OracleAttestationData",
          "name": "_attestData",
          "type": "tuple"
        },
        {
          "components": [
            {
              "internalType": "address",
              "name": "addr",
              "type": "address"
            },
            {
              "internalType": "uint256",
              "name": "power",
              "type": "uint256"
            }
          ],
          "internalType": "struct Validator[]",
          "name": "_valset",
          "type": "tuple[]"
        },
        {
          "components": [
            {
              "internalType": "uint8",
              "name": "v",
              "type": "uint8"
            },
            {
              "internalType": "bytes32",
              "name": "r",
              "type": "bytes32"
            },
            {
              "internalType": "bytes32",
              "name": "s",
              "type": "bytes32"
            }
          ],
          "internalType": "struct Signature[]",
          "name": "_sigs",
          "type": "tuple[]"
        },
        {
          "internalType": "uint256",
          "name": "_depositId",
          "type": "uint256"
        }
      ],
      "name": "withdrawFromLayer",
      "outputs": [],
      "stateMutability": "nonpayable",
      "type": "function"
    },
    {
      "inputs": [],
      "name": "withdrawLimit",
      "outputs": [
        {
          "internalType": "uint256",
          "name": "",
          "type": "uint256"
        }
      ],
      "stateMutability": "view",
      "type": "function"
    },
    {
      "inputs": [],
      "name": "withdrawLimitRecord",
      "outputs": [
        {
          "internalType": "uint256",
          "name": "",
          "type": "uint256"
        }
      ],
      "stateMutability": "view",
      "type": "function"
    },
    {
      "inputs": [],
      "name": "withdrawLimitUpdateTime",
      "outputs": [
        {
          "internalType": "uint256",
          "name": "",
          "type": "uint256"
        }
      ],
      "stateMutability": "view",
      "type": "function"
    }
  ],
  "bytecode": "0x60a060405260006080908152620000189060c062000109565b60408051601f1981840301815290829052620000379160200162000125565b604051602081830303815290604052805190602001206000553480156200005d57600080fd5b5060405162002b1a38038062002b1a83398101604081905262000080916200018b565b600280546001600160a01b03199081166001600160a01b039384161790915560018054821694831694909417909355600380549093169116179055620001d5565b6000815180845260005b81811015620000e957602081850181015186830182015201620000cb565b506000602082860101526020601f19601f83011685010191505092915050565b6020815260006200011e6020830184620000c1565b9392505050565b60408152601360408201527f54656c6c6f724f7261636c65416464726573730000000000000000000000000060608201526080602082015260006200011e6080830184620000c1565b80516001600160a01b03811681146200018657600080fd5b919050565b600080600060608486031215620001a157600080fd5b620001ac846200016e565b9250620001bc602085016200016e565b9150620001cc604085016200016e565b90509250925092565b61293580620001e56000396000f3fe608060405234801561001057600080fd5b50600436106102275760003560e01c8063a82f143c11610130578063e07c5486116100b8578063f4913c7e1161007c578063f4913c7e14610497578063f848d541146104aa578063fa3c06d2146104b2578063fc0c546a146104bb578063fc735e99146104ce57600080fd5b8063e07c54861461042b578063e513730b14610456578063e5d8b9dc14610469578063e78cea921461047c578063ecf708581461048f57600080fd5b8063c0f95d52116100ff578063c0f95d52146103cc578063c5958af9146103d4578063ce5e11bf146103f4578063d9c51cd414610407578063db1cce411461041a57600080fd5b8063a82f143c1461038f578063b02c43d014610397578063b8eed263146103bb578063c049e653146103c357600080fd5b806377b03e0d116101b35780638f4588cb116101825780638f4588cb1461034a5780639410e01f146103535780639852099c1461035c5780639b965a7314610365578063a792765f1461036d57600080fd5b806377b03e0d1461031c5780637dd0480f1461032f5780637f629c651461033757806389c5a50e1461034157600080fd5b806329449085116101fa57806329449085146102b057806343b5e433146102da5780634466ec2c146102e657806344e87f91146103005780636262b4381461031357600080fd5b8063178073dd1461022c5780631a8bcd34146102645780631e8683341461027b578063285bbd481461029b575b600080fd5b61024f61023a366004611eba565b600d6020526000908152604090205460ff1681565b60405190151581526020015b60405180910390f35b61026d6103e881565b60405190815260200161025b565b61026d610289366004611eeb565b600c6020526000908152604090205481565b6102ae6102a9366004611eeb565b6104d6565b005b6102c36102be366004611f0f565b610792565b60408051921515835260208301919091520161025b565b61026d64e8d4a5100081565b6007546102f39060ff1681565b60405161025b9190611f47565b61024f61030e366004611f0f565b610816565b61026d61a8c081565b61026d61032a366004611eba565b610894565b6102ae610902565b61026d621baf8081565b61026d600a5481565b61026d60095481565b61026d60065481565b61026d60045481565b61026d601481565b61038061037b366004611f0f565b610b71565b60405161025b93929190611fbf565b6102ae610c2e565b6103aa6103a5366004611eba565b610d4b565b60405161025b959493929190611fea565b61026d600581565b61026d60085481565b61026d610e0c565b6103e76103e2366004611f0f565b610e7f565b60405161025b9190612029565b61026d610402366004611f0f565b610ef8565b6102ae610415366004611eba565b610f6d565b61026d69021e19e0c9bab240000081565b61043e610439366004611f0f565b610fec565b6040516001600160a01b03909116815260200161025b565b60025461043e906001600160a01b031681565b6102ae610477366004612081565b611061565b60035461043e906001600160a01b031681565b61026d61160b565b6102ae6104a536600461221c565b6116b5565b61026d611acf565b61026d60055481565b60015461043e906001600160a01b031681565b61270f61026d565b600160075460ff1660028111156104ef576104ef611f31565b036105415760405162461bcd60e51b815260206004820152601d60248201527f546f6b656e4272696467653a206272696467652069732070617573656400000060448201526064015b60405180910390fd5b6001600160a01b0381166000908152600c60205260409020548061059c5760405162461bcd60e51b81526020600482015260126024820152710616d6f756e74206d757374206265203e20360741b6044820152606401610538565b60006105a782611af9565b9050600081116106095760405162461bcd60e51b815260206004820152602760248201527f546f6b656e4272696467653a207769746864726177206c696d6974206d7573746044820152660206265203e20360cc1b6064820152608401610538565b81811015610656576001600160a01b0383166000908152600c6020526040902054610635908290612282565b6001600160a01b0384166000908152600c6020526040902055905080610670565b6001600160a01b0383166000908152600c60205260408120555b81600a60008282546106829190612282565b909155505060015460405163a9059cbb60e01b81526001600160a01b038581166004830152602482018590529091169063a9059cbb906044016020604051808303816000875af11580156106da573d6000803e3d6000fd5b505050506040513d601f19601f820116820180604052508101906106fe91906122aa565b61074a5760405162461bcd60e51b815260206004820152601c60248201527f546f6b656e4272696467653a207472616e73666572206661696c6564000000006044820152606401610538565b604080516001600160a01b0385168152602081018490527f9e0580024755a2e1f3a499efe43139fe7908912aff1ecacee8287b54d4418f3a91015b60405180910390a1505050565b600254604051632944908560e01b8152600481018490526024810183905260009182916001600160a01b03909116906329449085906044016040805180830381865afa1580156107e6573d6000803e3d6000fd5b505050506040513d601f19601f8201168201806040525081019061080a91906122c5565b915091505b9250929050565b6002546040516344e87f9160e01b815260048101849052602481018390526000916001600160a01b0316906344e87f9190604401602060405180830381865afa158015610867573d6000803e3d6000fd5b505050506040513d601f19601f8201168201806040525081019061088b91906122aa565b90505b92915050565b6002546040516377b03e0d60e01b8152600481018390526000916001600160a01b0316906377b03e0d90602401602060405180830381865afa1580156108de573d6000803e3d6000fd5b505050506040513d601f19601f8201168201806040525081019061088e91906122f1565b600360009054906101000a90046001600160a01b03166001600160a01b031663452a93206040518163ffffffff1660e01b8152600401602060405180830381865afa158015610955573d6000803e3d6000fd5b505050506040513d601f19601f82011682018060405250810190610979919061230a565b6001600160a01b0316336001600160a01b0316146109ed5760405162461bcd60e51b815260206004820152602b60248201527f546f6b656e4272696467653a206f6e6c7920677561726469616e2063616e207060448201526a617573652062726964676560a81b6064820152608401610538565b600060075460ff166002811115610a0657610a06611f31565b14610a535760405162461bcd60e51b815260206004820181905260248201527f546f6b656e4272696467653a2063616e206f6e6c79207061757365206f6e63656044820152606401610538565b6001546040516323b872dd60e01b815233600482015261dead602482015269021e19e0c9bab240000060448201526001600160a01b03909116906323b872dd906064016020604051808303816000875af1158015610ab5573d6000803e3d6000fd5b505050506040513d601f19601f82011682018060405250810190610ad991906122aa565b610b255760405162461bcd60e51b815260206004820152601c60248201527f546f6b656e4272696467653a207472616e73666572206661696c6564000000006044820152606401610538565b6007805460ff19166001908117909155426008556040517f9309bd706341b8519d822d5ea2ce463296bce466f9ce1c8814aa1ddc10708b8791610b6791611f47565b60405180910390a1565b60006060600080548503610ba857604080513060208201526001910160405160208183030381529060405242925092509250610c27565b60025460405163a792765f60e01b815260048101879052602481018690526001600160a01b039091169063a792765f90604401600060405180830381865afa158015610bf8573d6000803e3d6000fd5b505050506040513d6000823e601f3d908101601f19168201604052610c209190810190612374565b9250925092505b9250925092565b600160075460ff166002811115610c4757610c47611f31565b14610c9e5760405162461bcd60e51b815260206004820152602160248201527f546f6b656e4272696467653a20627269646765206973206e6f742070617573656044820152601960fa1b6064820152608401610538565b621baf8060085442610cb09190612282565b11610d0d5760405162461bcd60e51b815260206004820152602760248201527f546f6b656e4272696467653a206d7573742077616974206265666f726520756e60448201526670617573696e6760c81b6064820152608401610538565b6007805460ff191660029081179091556040517f9309bd706341b8519d822d5ea2ce463296bce466f9ce1c8814aa1ddc10708b8791610b6791611f47565b600b60205260009081526040902080546001820180546001600160a01b039092169291610d77906123cb565b80601f0160208091040260200160405190810160405280929190818152602001828054610da3906123cb565b8015610df05780601f10610dc557610100808354040283529160200191610df0565b820191906000526020600020905b815481529060010190602001808311610dd357829003601f168201915b5050505050908060020154908060030154908060040154905085565b6002546040805163607caea960e11b815290516000926001600160a01b03169163c0f95d529160048083019260209291908290030181865afa158015610e56573d6000803e3d6000fd5b505050506040513d601f19601f82011682018060405250810190610e7a91906122f1565b905090565b60025460405163c5958af960e01b815260048101849052602481018390526060916001600160a01b03169063c5958af990604401600060405180830381865afa158015610ed0573d6000803e3d6000fd5b505050506040513d6000823e601f3d908101601f1916820160405261088b9190810190612405565b60025460405163ce5e11bf60e01b815260048101849052602481018390526000916001600160a01b03169063ce5e11bf90604401602060405180830381865afa158015610f49573d6000803e3d6000fd5b505050506040513d601f19601f8201168201806040525081019061088b91906122f1565b6001546040516323b872dd60e01b8152336004820152306024820152604481018390526001600160a01b03909116906323b872dd906064016020604051808303816000875af1158015610fc4573d6000803e3d6000fd5b505050506040513d601f19601f82011682018060405250810190610fe891906122aa565b5050565b60025460405163703e2a4360e11b815260048101849052602481018390526000916001600160a01b03169063e07c548690604401602060405180830381865afa15801561103d573d6000803e3d6000fd5b505050506040513d601f19601f8201168201806040525081019061088b919061230a565b600160075460ff16600281111561107a5761107a611f31565b036110c75760405162461bcd60e51b815260206004820152601d60248201527f546f6b656e4272696467653a20627269646765206973207061757365640000006044820152606401610538565b604080516000602082015290810182905260600160408051601f19818403018152908290526110f89160200161243a565b604051602081830303815290604052805190602001208660000135146111605760405162461bcd60e51b815260206004820152601c60248201527f546f6b656e4272696467653a20696e76616c69642071756572794964000000006044820152606401610538565b6000818152600d602052604090205460ff16156111cd5760405162461bcd60e51b815260206004820152602560248201527f546f6b656e4272696467653a20776974686472617720616c726561647920636c604482015264185a5b595960da1b6064820152608401610538565b61a8c06103e86111e0602089018961246d565b602001356111ee91906124a3565b6111f89042612282565b116112505760405162461bcd60e51b815260206004820152602260248201527f546f6b656e4272696467653a207072656d61747572652061747465737461746960448201526137b760f11b6064820152608401610538565b61a8c06112636103e860408901356124a3565b61126d9042612282565b106112ba5760405162461bcd60e51b815260206004820181905260248201527f546f6b656e4272696467653a206174746573746174696f6e20746f6f206f6c646044820152606401610538565b600354604051632890d93760e11b81526001600160a01b0390911690635121b26e906112f29089908990899089908990600401612590565b60006040518083038186803b15801561130a57600080fd5b505afa15801561131e573d6000803e3d6000fd5b50505050600360009054906101000a90046001600160a01b03166001600160a01b031663ba95ec276040518163ffffffff1660e01b8152600401602060405180830381865afa158015611375573d6000803e3d6000fd5b505050506040513d601f19601f8201168201806040525081019061139991906122f1565b6113a6602088018861246d565b60400135101561142c5760405162461bcd60e51b815260206004820152604560248201527f5265706f72742061676772656761746520706f776572206d757374206265206760448201527f726561746572207468616e206f7220657175616c20746f205f6d696e696d756d6064820152642837bbb2b960d91b608482015260a401610538565b6000818152600d602090815260408220805460ff1916600117905581908190611457908a018a61246d565b6114619080612681565b81019061146e91906126c8565b5091945092509050600061148764e8d4a5100083612728565b9050600061149482611af9565b9050818110156114e8576114a88183612282565b6001600160a01b0386166000908152600c60205260409020546114cb919061273f565b6001600160a01b0386166000908152600c60205260409020559050805b81600a60008282546114fa9190612282565b909155505060015460405163a9059cbb60e01b81526001600160a01b038781166004830152602482018590529091169063a9059cbb906044016020604051808303816000875af1158015611552573d6000803e3d6000fd5b505050506040513d601f19601f8201168201806040525081019061157691906122aa565b6115c25760405162461bcd60e51b815260206004820152601c60248201527f546f6b656e4272696467653a207472616e73666572206661696c6564000000006044820152606401610538565b7e1e3fbdbd61c5a2425d14ff0020dd9bbd2bac70b606f7bd7552534c7bae55df868587856040516115f69493929190612752565b60405180910390a15050505050505050505050565b600061a8c06005544261161e9190612282565b11156116ae57600561162e611c7c565b6001546040516370a0823160e01b81523060048201526001600160a01b03909116906370a0823190602401602060405180830381865afa158015611676573d6000803e3d6000fd5b505050506040513d601f19601f8201168201806040525081019061169a91906122f1565b6116a4919061273f565b610e7a91906124a3565b5060065490565b67016345785d8a000083116117285760405162461bcd60e51b815260206004820152603360248201527f546f6b656e4272696467653a20616d6f756e74206d7573742062652067726561604482015272746572207468616e20302e3120746f6b656e7360681b6064820152608401610538565b61173764e8d4a5100084612787565b1561179a5760405162461bcd60e51b815260206004820152602d60248201527f546f6b656e4272696467653a20616d6f756e74206d757374206265206469766960448201526c39b4b1363290313c9018b2989960991b6064820152608401610538565b6117a383611d37565b8311156118185760405162461bcd60e51b815260206004820152603960248201527f546f6b656e4272696467653a20616d6f756e742065786365656473206465706f60448201527f736974206c696d697420666f722074696d6520706572696f64000000000000006064820152608401610538565b8282111561188e5760405162461bcd60e51b815260206004820152603560248201527f546f6b656e4272696467653a20746970206d757374206265206c65737320746860448201527f616e206f7220657175616c20746f20616d6f756e7400000000000000000000006064820152608401610538565b811561190f5764e8d4a5100082101561190f5760405162461bcd60e51b815260206004820152603860248201527f546f6b656e4272696467653a20746970206d757374206265206772656174657260448201527f207468616e206f7220657175616c20746f2031206c6f796100000000000000006064820152608401610538565b6001546040516323b872dd60e01b8152336004820152306024820152604481018590526001600160a01b03909116906323b872dd906064016020604051808303816000875af1158015611966573d6000803e3d6000fd5b505050506040513d601f19601f8201168201806040525081019061198a91906122aa565b6119d65760405162461bcd60e51b815260206004820181905260248201527f546f6b656e4272696467653a207472616e7366657246726f6d206661696c65646044820152606401610538565b600480549060006119e68361279b565b919050555082600660008282546119fd9190612282565b90915550506040805160a0810182523381526020808201848152828401879052606083018690524360808401526004546000908152600b9092529290208151815473ffffffffffffffffffffffffffffffffffffffff19166001600160a01b0390911617815591519091906001820190611a779082612803565b506040828101516002830155606083015160038301556080909201516004918201555490517fe9a436e6735e7a54b0d2505d14247a614f3af68dad813a7a46834b876b13d7c1916107859133908590889088906128c3565b600061a8c060095442611ae29190612282565b1115611af257601461162e611c7c565b50600a5490565b600061a8c060095442611b0c9190612282565b1115611c74576001546040516370a0823160e01b81523060048201526000916001600160a01b0316906370a0823190602401602060405180830381865afa158015611b5b573d6000803e3d6000fd5b505050506040513d601f19601f82011682018060405250810190611b7f91906122f1565b905082811015611c6057600160009054906101000a90046001600160a01b03166001600160a01b031663b67f8cbd6040518163ffffffff1660e01b8152600401600060405180830381600087803b158015611bd957600080fd5b505af1158015611bed573d6000803e3d6000fd5b50506001546040516370a0823160e01b81523060048201526001600160a01b0390911692506370a082319150602401602060405180830381865afa158015611c39573d6000803e3d6000fd5b505050506040513d601f19601f82011682018060405250810190611c5d91906122f1565b90505b611c6b6014826124a3565b600a5550426009555b5050600a5490565b60015460405163612c8f7f60e01b81527ff9fc7fb48c7559e97d53ab4f65d985310377942095551edc1ff9acf706a45a0d6004820152600091829162015180916001600160a01b03169063612c8f7f90602401602060405180830381865afa158015611cec573d6000803e3d6000fd5b505050506040513d601f19601f82011682018060405250810190611d1091906122f1565b611d1a9042612282565b611d2d906807f733bf7a7fe60000612728565b61088e91906124a3565b600061a8c060055442611d4a9190612282565b1115611eb2576001546040516370a0823160e01b81523060048201526000916001600160a01b0316906370a0823190602401602060405180830381865afa158015611d99573d6000803e3d6000fd5b505050506040513d601f19601f82011682018060405250810190611dbd91906122f1565b905082811015611e9e57600160009054906101000a90046001600160a01b03166001600160a01b031663b67f8cbd6040518163ffffffff1660e01b8152600401600060405180830381600087803b158015611e1757600080fd5b505af1158015611e2b573d6000803e3d6000fd5b50506001546040516370a0823160e01b81523060048201526001600160a01b0390911692506370a082319150602401602060405180830381865afa158015611e77573d6000803e3d6000fd5b505050506040513d601f19601f82011682018060405250810190611e9b91906122f1565b90505b611ea96005826124a3565b60065550426005555b505060065490565b600060208284031215611ecc57600080fd5b5035919050565b6001600160a01b0381168114611ee857600080fd5b50565b600060208284031215611efd57600080fd5b8135611f0881611ed3565b9392505050565b60008060408385031215611f2257600080fd5b50508035926020909101359150565b634e487b7160e01b600052602160045260246000fd5b6020810160038310611f6957634e487b7160e01b600052602160045260246000fd5b91905290565b60005b83811015611f8a578181015183820152602001611f72565b50506000910152565b60008151808452611fab816020860160208601611f6f565b601f01601f19169290920160200192915050565b8315158152606060208201526000611fda6060830185611f93565b9050826040830152949350505050565b6001600160a01b038616815260a06020820152600061200c60a0830187611f93565b604083019590955250606081019290925260809091015292915050565b60208152600061088b6020830184611f93565b60008083601f84011261204e57600080fd5b50813567ffffffffffffffff81111561206657600080fd5b60208301915083602060608302850101111561080f57600080fd5b6000806000806000806080878903121561209a57600080fd5b863567ffffffffffffffff808211156120b257600080fd5b908801906060828b0312156120c657600080fd5b909650602088013590808211156120dc57600080fd5b818901915089601f8301126120f057600080fd5b8135818111156120ff57600080fd5b8a60208260061b850101111561211457600080fd5b60208301975080965050604089013591508082111561213257600080fd5b5061213f89828a0161203c565b979a9699509497949695606090950135949350505050565b634e487b7160e01b600052604160045260246000fd5b604051601f8201601f1916810167ffffffffffffffff8111828210171561219657612196612157565b604052919050565b600067ffffffffffffffff8211156121b8576121b8612157565b50601f01601f191660200190565b600082601f8301126121d757600080fd5b81356121ea6121e58261219e565b61216d565b8181528460208386010111156121ff57600080fd5b816020850160208301376000918101602001919091529392505050565b60008060006060848603121561223157600080fd5b8335925060208401359150604084013567ffffffffffffffff81111561225657600080fd5b612262868287016121c6565b9150509250925092565b634e487b7160e01b600052601160045260246000fd5b8181038181111561088e5761088e61226c565b805180151581146122a557600080fd5b919050565b6000602082840312156122bc57600080fd5b61088b82612295565b600080604083850312156122d857600080fd5b6122e183612295565b9150602083015190509250929050565b60006020828403121561230357600080fd5b5051919050565b60006020828403121561231c57600080fd5b8151611f0881611ed3565b600082601f83011261233857600080fd5b81516123466121e58261219e565b81815284602083860101111561235b57600080fd5b61236c826020830160208701611f6f565b949350505050565b60008060006060848603121561238957600080fd5b61239284612295565b9250602084015167ffffffffffffffff8111156123ae57600080fd5b6123ba86828701612327565b925050604084015190509250925092565b600181811c908216806123df57607f821691505b6020821081036123ff57634e487b7160e01b600052602260045260246000fd5b50919050565b60006020828403121561241757600080fd5b815167ffffffffffffffff81111561242e57600080fd5b61236c84828501612327565b60408152600960408201526854524242726964676560b81b606082015260806020820152600061088b6080830184611f93565b60008235609e1983360301811261248357600080fd5b9190910192915050565b634e487b7160e01b600052601260045260246000fd5b6000826124b2576124b261248d565b500490565b81835281816020850137506000828201602090810191909152601f909101601f19169091010190565b8183526000602080850194508260005b8581101561252857813561250381611ed3565b6001600160a01b031687528183013583880152604096870196909101906001016124f0565b509495945050505050565b818352600060208085019450826000805b8681101561258457823560ff811680821461255d578384fd5b89525082840135848901526040808401359089015260609788019790920191600101612544565b50959695505050505050565b606081528535606082015260006020870135609e198836030181126125b457600080fd5b606060808401528701803536829003601e190181126125d257600080fd5b810160208101903567ffffffffffffffff8111156125ef57600080fd5b8036038213156125fe57600080fd5b60a060c0860152612614610160860182846124b7565b915050602082013560e0850152604082013561010085015260608201356101208501526080820135610140850152604089013560a0850152838103602085015261265f81888a6124e0565b9150508281036040840152612675818587612533565b98975050505050505050565b6000808335601e1984360301811261269857600080fd5b83018035915067ffffffffffffffff8211156126b357600080fd5b60200191503681900382131561080f57600080fd5b600080600080608085870312156126de57600080fd5b84356126e981611ed3565b9350602085013567ffffffffffffffff81111561270557600080fd5b612711878288016121c6565b949794965050505060408301359260600135919050565b808202811582820484141761088e5761088e61226c565b8082018082111561088e5761088e61226c565b84815260806020820152600061276b6080830186611f93565b6001600160a01b03949094166040830152506060015292915050565b6000826127965761279661248d565b500690565b6000600182016127ad576127ad61226c565b5060010190565b601f8211156127fe57600081815260208120601f850160051c810160208610156127db5750805b601f850160051c820191505b818110156127fa578281556001016127e7565b5050505b505050565b815167ffffffffffffffff81111561281d5761281d612157565b6128318161282b84546123cb565b846127b4565b602080601f831160018114612866576000841561284e5750858301515b600019600386901b1c1916600185901b1785556127fa565b600085815260208120601f198616915b8281101561289557888601518255948401946001909101908401612876565b50858210156128b35787850151600019600388901b60f8161c191681555b5050505050600190811b01905550565b8581526001600160a01b038516602082015260a0604082015260006128eb60a0830186611f93565b60608301949094525060800152939250505056fea264697066735822122033f0363b5caad4a57d141f2442c29f1b09dea157c12a974cc397f7ecd639dd7b64736f6c63430008130033",
  "linkReferences": {},
  "deployedLinkReferences": {}
}